:020000040800F2
:10000000005000203D030008E1020008E70200085C
:10001000ED020008F3020008F902000800000000E9
:10002000000000000000000000000000FF020008C7
:100030000B0300080000000017030008230300085A
:100040008503000885030008850300088503000870
:100050008503000885030008850300088503000860
:100060008503000885030008850300088503000850
:100070008503000885030008850300088503000840
:100080008503000885030008850300088503000830
:100090008503000885030008850300088503000820
:1000A0008503000885030008850300088503000810
:1000B0008503000885030008850300088503000800
:1000C00085030008850300088503000885030008F0
:1000D00085030008850300088503000885030008E0
:1000E0008503000885030008850300080000000060
:1000F0000000000000000000000000000000000000
:0C01000000000000000000005FF808F1A3
:10010C0010B5054C237833B9044B13B10448AFF345
:10011C0000800123237010BD0C00002000000000A3
:10012C009411000808B5034B1BB103490348AFF306
:10013C00008008BD00000000100000209411000891
:10014C0080B500AF00F01AF900F01EF800F058F876
:10015C0000F06CF903460A4A136000F067F9024696
:10016C00074B1B68D31AB3F57A7FF6D901210548E2
:10017C0000F0E6FB00F05AF90346014A1360ECE785
:10018C00280000200008014080B590B000AF07F1B6
:10019C00180328220021184600F0EEFF3B1D002218
:1001AC001A605A609A60DA601A610223BB610123FB
:1001BC00BB621023FB6200237B6307F11803184614
:1001CC0000F0D8FB0346002B01D000F04BF80F23B6
:1001DC007B600023BB600023FB6000233B6100239A
:1001EC007B613B1D0021184600F046FE0346002BA8
:1001FC0001D000F037F800BF4037BD4680BD00008D
:10020C0080B586B000AF07F1080300221A605A606F
:10021C009A60DA60114B9B69104A43F004039361B6
:10022C000E4B9B6903F004037B607B680022012169
:10023C000B4800F06DFB0123BB600123FB60002326
:10024C003B6102237B6107F108031946044800F067
:10025C00DBF900BF1837BD4680BD00BF001002405F
:10026C000008014080B400AF72B600BFFEE700008A
:10027C0080B485B000AF154B9B69144A43F0010361
:10028C009361124B9B6903F00103BB60BB680F4B7E
:10029C00DB690E4A43F08053D3610C4BDB6903F0EE
:1002AC0080537B607B680A4B5B68FB60FB6823F0C8
:1002BC00E063FB60FB6843F00073FB60044AFB687F
:1002CC00536000BF1437BD4680BC7047001002401D
:1002DC000000014080B400AFFEE780B400AFFEE741
:1002EC0080B400AFFEE780B400AFFEE780B400AF8F
:1002FC00FEE780B400AF00BFBD4680BC704780B441
:10030C0000AF00BFBD4680BC704780B400AF00BFDB
:10031C00BD4680BC704780B500AF00F075F800BFDB
:10032C0080BD80B400AF00BFBD4680BC70470000EC
:10033C00FFF7F7FF0B480C490C4A002302E0D45896
:10034C00C4500433C4188C42F9D3094A094C002315
:10035C0001E013600432A242FBD300F0E9FEFFF788
:10036C00EFFE7047000000200C000020D8110008A0
:10037C000C00002030000020FEE7000080B500AF2C
:10038C00084B1B68074A43F010031360032000F06E
:10039C0007F90F2000F008F8FFF76AFF0023184652
:1003AC0080BD00BF0020024080B582B000AF7860F5
:1003BC00124B1A68124B1B7819464FF47A73B3FB25
:1003CC00F1F3B2FBF3F3184600F011F90346002BDE
:1003DC0001D001230EE07B680F2B0AD8002279682C
:1003EC004FF0FF3000F0E7F8064A7B6813600023FB
:1003FC0000E0012318460837BD4680BD00000020F0
:10040C00080000200400002080B400AF054B1B78CE
:10041C001A46054B1B681344034A136000BFBD46C4
:10042C0080BC7047080000202C00002080B400AF76
:10043C00024B1B681846BD4680BC70472C00002040
:10044C0080B485B000AF78607B6803F00703FB6075
:10045C000C4BDB68BB60BA684FF6FF031340BB6004
:10046C00FB681A02BB68134343F0BF6343F40033C9
:10047C00BB60044ABB68D36000BF1437BD4680BC68
:10048C00704700BF00ED00E080B400AF044BDB68A8
:10049C001B0A03F007031846BD4680BC704700BF1B
:1004AC0000ED00E080B483B000AF03463960FB710F
:1004BC0097F90730002B0ADB3B68DAB20C4997F945
:1004CC0007301201D2B20B4483F800230AE03B68D8
:1004DC00DAB20849FB7903F00F03043B1201D2B2E4
:1004EC000B441A7600BF0C37BD4680BC704700BF6A
:1004FC0000E100E000ED00E080B489B000AFF860EE
:10050C00B9607A60FB6803F00703FB61FB69C3F118
:10051C000703042B28BF0423BB61FB690433062BA0
:10052C0002D9FB69033B00E000237B614FF0FF32F3
:10053C00BB6902FA03F3DA43BB681A407B699A4041
:10054C004FF0FF317B6901FA03F3D9437B680B4011
:10055C00134318462437BD4680BC704780B582B023
:10056C0000AF78607B68013BB3F1807F01D301233E
:10057C000FE00A4A7B68013B53600F214FF0FF30BC
:10058C00FFF790FF054B00229A60044B07221A607C
:10059C00002318460837BD4680BD00BF10E000E0C0
:1005AC0080B582B000AF78607868FFF749FF00BF74
:1005BC000837BD4680BD80B586B000AF0346B96034
:1005CC007A60FB7300237B61FFF75EFF78617A68CA
:1005DC00B9687869FFF790FF024697F90F3011461A
:1005EC001846FFF75FFF00BF1837BD4680BD80B5CA
:1005FC0082B000AF78607868FFF7B0FF034618460A
:10060C000837BD4680BD000080B48BB000AF786069
:10061C00396000237B6200233B6269E101227B6A23
:10062C0002FA03F3FB613B681B68FA691340BB6178
:10063C00BA69FB699A4240F058813B685B689A4AF8
:10064C0093425ED0984A934275D8984A934258D0B8
:10065C00964A93426FD8964A934252D0944A934208
:10066C0069D8944A93424CD0924A934263D8924AA6
:10067C00934246D0904A93425DD8122B2AD8122B23
:10068C0059D801A252F823F00F070008E906000818
:10069C00FB0600083D070008430700084307000855
:1006AC0043070008430700084307000843070008F6
:1006BC0043070008430700084307000843070008E6
:1006CC00430700084307000843070008F106000829
:1006DC0005070008794A934213D02CE03B68DB688D
:1006EC003B6229E03B68DB6804333B6224E03B68F7
:1006FC00DB6808333B621FE03B68DB680C333B6212
:10070C001AE03B689B68002B02D104233B6213E088
:10071C003B689B68012B05D108233B627B68FA6917
:10072C001A6109E008233B627B68FA695A6103E0AD
:10073C0000233B6200E000BFBB69FF2B01D87B6844
:10074C0001E07B6804337B61BB69FF2B02D87B6AB9
:10075C009B0002E07B6A083B9B003B617B691A684B
:10076C000F213B6901FA03F3DB431A40396A3B69F9
:10077C0001FA03F31A437B691A603B685B6803F068
:10078C008053002B00F0B1804D4B9B694C4A43F0D9
:10079C00010393614A4B9B6903F00103BB60BB6887
:1007AC00484A7B6A9B08023352F82330FB607B6A11
:1007BC0003F003039B000F2202FA03F3DB43FA68F6
:1007CC001340FB607B68404A934213D07B683F4ADE
:1007DC0093420DD07B683E4A934207D07B683D4ADA
:1007EC00934201D1032306E0042304E0022302E038
:1007FC00012300E000237A6A02F003029200934086
:10080C00FA681343FB602F497B6A9B080233FA6832
:10081C0041F823203B685B6803F48013002B06D05F
:10082C002D4B9A682C49BB6913438B6006E02A4B0D
:10083C009A68BB69DB43284913408B603B685B6853
:10084C0003F40013002B06D0234BDA682249BB6952
:10085C001343CB6006E0204BDA68BB69DB431E49CF
:10086C001340CB603B685B6803F40033002B06D06D
:10087C00194B5A681849BB6913434B6006E0164B79
:10088C005A68BB69DB43144913404B603B685B6897
:10089C0003F48033002B21D00F4B1A680E49BB692F
:1008AC0013430B6021E000BF000032100000311038
:1008BC000000221000002110000012100000111086
:1008CC00001002400000014000080140000C0140F3
:1008DC000010014000140140000401400B4B1A6849
:1008EC00BB69DB43094913400B607B6A01337B62B4
:1008FC003B681A687B6A22FA03F3002B7FF48EAEF6
:10090C0000BF00BF2C37BD4680BC704700040140BF
:10091C0080B483B000AF78600B467B8013467B704D
:10092C007B78002B03D07A887B681A6103E07B8884
:10093C001A047B681A6100BF0C37BD4680BC704737
:10094C0080B485B000AF78600B467B807B68DB6839
:10095C00FB607A88FB6813401A04FB68D9437B88D8
:10096C000B401A437B681A6100BF1437BD4680BC2C
:10097C007047000080B586B000AF78607B68002BB4
:10098C0001D1012372E27B681B6803F00103002B89
:10099C0000F08780924B5B6803F00C03042B0CD0A7
:1009AC008F4B5B6803F00C03082B12D18C4B5B68EC
:1009BC0003F48033B3F5803F0BD1894B1B6803F4F0
:1009CC000033002B6CD07B685B68002B68D1012353
:1009DC004CE27B685B68B3F5803F06D1804B1B68AB
:1009EC007F4A43F4803313602EE07B685B68002BF6
:1009FC000CD17B4B1B687A4A23F480331360784B01
:100A0C001B68774A23F4802313601DE07B685B68C6
:100A1C00B3F5A02F0CD1724B1B68714A43F48023A1
:100A2C0013606F4B1B686E4A43F4803313600BE00A
:100A3C006B4B1B686A4A23F480331360684B1B684A
:100A4C00674A23F4802313607B685B68002B13D008
:100A5C00FFF7ECFC386108E0FFF7E8FC02463B6965
:100A6C00D31A642B01D9032300E25D4B1B6803F4FA
:100A7C000033002BF0D014E0FFF7D8FC386108E00D
:100A8C00FFF7D4FC02463B69D31A642B01D903232C
:100A9C00ECE1534B1B6803F40033002BF0D100E066
:100AAC0000BF7B681B6803F00203002B63D04C4B28
:100ABC005B6803F00C03002B0BD0494B5B6803F015
:100ACC000C03082B1CD1464B5B6803F48033002BC2
:100ADC0016D1434B1B6803F00203002B05D07B6837
:100AEC001B69012B01D00123C0E13D4B1B6823F096
:100AFC00F8027B685B69DB00394913430B603AE011
:100B0C007B681B69002B20D0364B01221A60FFF743
:100B1C008DFC386108E0FFF789FC02463B69D31A6B
:100B2C00022B01D90323A1E12D4B1B6803F0020317
:100B3C00002BF0D02A4B1B6823F0F8027B685B6912
:100B4C00DB00274913430B6015E0264B00221A608B
:100B5C00FFF76CFC386108E0FFF768FC02463B6964
:100B6C00D31A022B01D9032380E11D4B1B6803F020
:100B7C000203002BF0D17B681B6803F00803002BE9
:100B8C003AD07B689B69002B19D0174B01221A6055
:100B9C00FFF74CFC386108E0FFF748FC02463B6964
:100BAC00D31A022B01D9032360E10D4B5B6A03F0CE
:100BBC000203002BF0D0012000F09CFA1CE00A4B41
:100BCC0000221A60FFF732FC38610FE0FFF72EFCB1
:100BDC0002463B69D31A022B08D9032346E100BF16
:100BEC00001002400000424280044242924B5B6A79
:100BFC0003F00203002BE9D17B681B6803F00403AC
:100C0C00002B00F0A6800023FB758B4BDB6903F0F7
:100C1C008053002B0DD1884BDB69874A43F08053FE
:100C2C00D361854BDB6903F08053BB60BB68012348
:100C3C00FB75824B1B6803F48073002B18D17F4B20
:100C4C001B687E4A43F480731360FFF7EFFB386137
:100C5C0008E0FFF7EBFB02463B69D31A642B01D982
:100C6C00032303E1754B1B6803F48073002BF0D056
:100C7C007B68DB68012B06D16F4B1B6A6E4A43F015
:100C8C00010313622DE07B68DB68002B0CD16A4BEF
:100C9C001B6A694A23F001031362674B1B6A664A9D
:100CAC0023F0040313621CE07B68DB68052B0CD17A
:100CBC00614B1B6A604A43F0040313625E4B1B6A70
:100CCC005D4A43F0010313620BE05B4B1B6A5A4A0B
:100CDC0023F001031362584B1B6A574A23F0040399
:100CEC0013627B68DB68002B15D0FFF79FFB386124
:100CFC000AE0FFF79BFB02463B69D31A41F28832AC
:100D0C00934201D90323B1E04B4B1B6A03F002035E
:100D1C00002BEED014E0FFF789FB38610AE0FFF7F7
:100D2C0085FB02463B69D31A41F28832934201D9C2
:100D3C0003239BE0404B1B6A03F00203002BEED114
:100D4C00FB7D012B05D13C4BDB693B4A23F08053E7
:100D5C00D3617B68DB69002B00F08780364B5B68C6
:100D6C0003F00C03082B61D07B68DB69022B46D1A6
:100D7C00334B00221A60FFF759FB386108E0FFF78C
:100D8C0055FB02463B69D31A022B01D903236DE0B4
:100D9C00294B1B6803F00073002BF0D17B681B6A96
:100DAC00B3F5803F08D1244B5B6823F400327B6899
:100DBC009B68214913434B601F4B5B6823F47412EF
:100DCC007B68196A7B685B6A0B431B4913434B6056
:100DDC001B4B01221A60FFF729FB386108E0FFF773
:100DEC0025FB02463B69D31A022B01D903233DE0B4
:100DFC00114B1B6803F00073002BF0D035E0104B47
:100E0C0000221A60FFF712FB386108E0FFF70EFBB7
:100E1C0002463B69D31A022B01D9032326E0064B69
:100E2C001B6803F00073002BF0D11EE07B68DB69BC
:100E3C00012B07D1012319E0001002400070004083
:100E4C00600042420B4B5B68FB60FB6803F4803232
:100E5C007B681B6A9A4206D1FB6803F470127B68AC
:100E6C005B6A9A4201D0012300E000231846183730
:100E7C00BD4680BD0010024080B584B000AF7860E4
:100E8C0039607B68002B01D10123D0E06A4B1B68D1
:100E9C0003F007033A689A4210D9674B1B6823F09A
:100EAC00070265493B6813430B60634B1B6803F0F7
:100EBC0007033A689A4201D00123B8E07B681B68AB
:100ECC0003F00203002B20D07B681B6803F00403A3
:100EDC00002B05D0594B5B68584A43F4E0635360D0
:100EEC007B681B6803F00803002B05D0534B5B6831
:100EFC00524A43F460535360504B5B6823F0F0024A
:100F0C007B689B684D4913434B607B681B6803F0FF
:100F1C000103002B40D07B685B68012B07D1474B4A
:100F2C001B6803F40033002B15D101237FE07B6891
:100F3C005B68022B07D1414B1B6803F00073002B3D
:100F4C0009D1012373E03D4B1B6803F00203002B16
:100F5C0001D101236BE0394B5B6823F003027B6802
:100F6C005B68364913434B60FFF760FAF8600AE0A0
:100F7C00FFF75CFA0246FB68D31A41F288329342BF
:100F8C0001D9032353E02D4B5B6803F00C027B6803
:100F9C005B689B009A42EBD1274B1B6803F007035D
:100FAC003A689A4210D2244B1B6823F0070222495C
:100FBC003B6813430B60204B1B6803F007033A6834
:100FCC009A4201D0012332E07B681B6803F00403D2
:100FDC00002B08D0194B5B6823F4E0627B68DB685C
:100FEC00164913434B607B681B6803F00803002B06
:100FFC0009D0124B5B6823F460527B681B69DB00E1
:10100C000E4913434B6000F021F802460B4B5B6812
:10101C001B0903F00F030A49CB5C22FA03F3094ABC
:10102C001360094B1B681846FFF7BEF900231846DE
:10103C001037BD4680BD00BF0020024000100240AA
:10104C00AC110008000000200400002080B487B020
:10105C0000AF0023FB600023BB6000237B610023F7
:10106C007B6000233B611E4B5B68FB60FB6803F0FD
:10107C000C03042B02D0082B03D027E0194B3B6147
:10108C0027E0FB689B0C03F00F03174AD35C7B60D3
:10109C00FB6803F48033002B10D0114B5B685B0CA6
:1010AC0003F00103114AD35CBB607B680D4A03FB60
:1010BC0002F2BB68B2FBF3F37B6104E07B680C4A81
:1010CC0002FB03F37B617B693B6102E0054B3B61F7
:1010DC0000BF3B6918461C37BD4680BC704700BF3B
:1010EC000010024000127A00BC110008CC1100085C
:1010FC0000093D0080B485B000AF78600A4B1B68D6
:10110C000A4AA2FB03235B0A7A6802FB03F3FB6027
:10111C0000BFFB685A1EFA60002BF9D100BF00BF5C
:10112C001437BD4680BC704700000020D34D6210C0
:10113C0070B500260C4D0D4C641BA410A64209D1B1
:10114C0000F022F800260A4D0A4C641BA410A6429B
:10115C0005D170BD55F8043B98470136EEE755F8BC
:10116C00043B98470136F2E7D0110008D011000873
:10117C00D0110008D411000803460244934200D158
:10118C00704703F8011BF9E7F8B500BFF8BC08BCC1
:10119C009E467047F8B500BFF8BC08BC9E46704729
:1011AC00000000000000000001020304060708090B
:1011BC0002030405060708090A0B0C0D0E0F10108C
:0411CC00010200001C
:0411D00031010008E1
:0411D4000D01000801
:0C11D8000024F4001000000001000000E2
:040000050800033DAF
:00000001FF
